:040000000C94FC015F
:040054000C94A1085F
:080090000C94A2090C94C509AF
:0800D8000C94E70A0C940A0BDA
:1400E400E906003E07001D07008706005D0600390600EC0590
:1400F80000CB0500E112006F01F9006B01F6000202F300ED82
:14010C0001F0006401ED005B01EA005301E70000000000ED2E
:1401200001E40000000000766F6C743A2025642E2530316426
:140134000D0A0074656D703A2025640D0A0063757272656E61
:14014800743A2025642E25640D0A0072657374617274006613
:14015C0069726D77617265007570646174650070776D00744D
:14017000696D6500726573746172740D0A004669726D7761BE
:1401840072653A2025532C2025532C2025530D0A00757064D6
:140198006174653A2074656D7020300D0A007570646174651F
:1401AC003A2063757272656E7420310D0A00757064617465F7
:1401C0003A20766F6C7420300D0A00566F6C74207570646136
:1401D40074656400766F6C740043757272656E7420757064C9
:1401E800617465640063757272656E740054656D70207570C7
:1401FC0064617465640074656D700063757272656E743A20DA
:14021000300D0A0074656D703A20300D0A0070776D3A202569
:14022400642025640D0A0054696D653A2031333A34313A304C
:14023800302032372D30342D323031330D0A0054696D6520AF
:14024C007365740D0A000A006400E8035620312E35004A7519
:140260006C20313320323031330031313A30353A32350028EA
:140274006E756C6C20707472207061737365642900696E7431
:1402880065676572206F6E6C79207072696E74662C20736506
:14029C006C6563742050726F6A6563742D3E4F7074696F6ECB
:1402B000732D3E5461726765742C224650207072696E74665E
:1402C4002220746F207072696E7420666C6F6174696E672020
:1402D800706F696E74206E756D626572733E0000202020200E
:1402EC0020202020203030303030202020202020202020202E
:14030000202020202020202090404040404040404040404099
:14031400404040400C0C0C0C0C0C0C0C0C0C404040404040DD
:1403280040090909090909010101010101010101010101013E
:14033C00010101010101014040404040400A0A0A0A0A0A02E8
:14035000020202020202020202020202020202020202024033
:140364004040402000000000000000000000000000000000A5
:14037800000000000000000000000000000000000000000071
:14038C0000000000000000000000000000000000000000005D
:1403A000000000000000000000000000000000000000000049
:1403B400000000000000000000000000000000000000000035
:1403C800000000000000000000000000000000000000000021
:1403DC000000000000000000000000000F0888002402000048
:1403F0000400050200000000CFEFD1E2CDBFDEBFCE51D04025
:140404000AEA08830024E0E1F2E015E0ED35F10711F001920B
:14041800FBCF0083E8EEF3E0A0E0B2E013E000E00BBFE83F04
:14042C00F10721F0C89531960D92F9CF0E94780CFFCF87E8C5
:1404400080937A0080E480937C000895C80187709070805CEF
:140454009F4F80937C0087E090E08017910734F480917B005D
:14046800886080937B0005C080917B00877F80937B0087ECB2
:14047C0080937A0020907A0026FCFCCF0091780010917900A5
:1404900008950E944812B8014427552704C08B010AD04F5F47
:1404A4005F4FFB012084318442155305B4F30C944D120E944A
:1404B8005212A8012497FA0100811127C3DFFA0122843384BA
:1404CC0002191309222717FD2095332727FD3095228033803B
:1404E000442437FC4094552447FC50945A924A923A922A92A9
:1404F4000E94E611FA013196208033242A920E942611088382
:1405080019832A833B83FA012480358046805780440C551C26
:14051C00F201E20DF31D2880398031822082CA010696FC01BF
:1405300080819181019691838083FA01208431844680578005
:140544002414350424F4222433243782268280E088838983A5
:140558008A838B83FA0160857185A480B58018C0615070400C
:14056C00F501219031905F01442437FC4094552447FC5094A4
:14058000688079808A809B80620C731C841C951C688279822E
:140594008A829B826030670729F7FA0138962080318044248A
:1405A80037FC4094552447FC5094088119812A813B815A9222
:1405BC004A923A922A920E94721118012901FA016484758483
:1405D000882477FC8094992487FC9094261837084808590852
:1405E400378626860685178524960C9459124A935A93A8013B
:1405F80002C04F5F5F4FFA01008111270E94311500300107FD
:14060C00B1F78A015991499108954A935A93A80102C04F5F63
:140620005F4FFA0120803324222039F0022D11270E9431156C
:140634000030010791F38A015991499108950E946E1259018E
:14064800B8018501D2DF5801A8010FC0FA0120803324822D3C
:14065C008D3311F08A3329F42224FA012192AF0106C04F5FD7
:140670005F4FFA012080222069F7FA012080222009F021C0D4
:14068400442755271EC09501FB01079116910E94C5126801EA
:140698000030010791F4FB01329627903690222011F43320B6
:1406AC0051F08A01FB01329607901690F0010E9480126801DF
:1406C0000DC06C5F7F4FFB0127903690222009F0DCCF33200E
:1406D40009F0D9CF0FEF1FEF0C947712AA92F999FECFF89415
:1406E80012BD01BD81E08FBBA0B478940A2DA99008950E94B7
:1406FC006012A22E68018601EDDF402F55274F3FE0E05E074E
:1407100011F40A2D01C0042F0C9467124A935A93A8018A018E
:14072400DDDF402E8A010F5F1F4F4F92D7DF4F90202E332415
:14073800322C2224042D1127022913295991499108950E9436
:14074C003E125901A8018A01C5DF402E8A010F5F1F4F4F9261
:14076000BFDF4F90202E3324322C2224442D552742295329EB
:140774004F3FEFEF5E0711F4850101C08A010C9443120E9432
:140788006E12590168016885798509C01601C10101966C0189
:14079C008101A0DFF50101935F01AB01615070404030450795
:1407B00089F70C9477120E943912C22E580185018FDF0C1541
:1407C40009F40BC0F999FECFF894C0BCB2BCA1BC84E08FBB79
:1407D80082E08FBB78940C941A120E943E125901A8012A2D3D
:1407EC008A01E3DF9501232F332727FD30958A010F5F1F4F1A
:14080000DADF0C9443120E9452125901B8014E815F8108C0A6
:14081400F50121915F011B016F5F7F4F8101C9DF1A0141503A
:140828005040222099F7332089F70C94591200300107E9F06B
:14083C000130E0E01E07F1F00230E0E01E07F9F00330E0E0BE
:140850001E0701F10430E0E01E0709F10530E0E01E0711F14E
:140864000630E0E01E0719F10730E0E01E0721F127C0309383
:140878002D0120932C0122C030932B0120932A011DC030930F
:14088C0029012093280118C030938B0020938A0013C0309359
:1408A0008900209388000EC030939D0020939C0009C0309377
:1408B4009B0020939A0004C0309399002093980008954A9363
:1408C8005A9344275527222733278A01D2D04F5F5F4F4830A4
:1408DC00E0E05E07B4F359914991089584E690E080179107D2
:1408F0001CF404E610E007C00030E0E01E071CF400271127BF
:1409040000C0089500300107E9F00130E0E01E07F9F0023040
:14091800E0E01E0709F10330E0E01E0719F10430E0E01E07B1
:14092C0029F10530E0E01E0739F10630E0E01E0749F10730CD
:14094000E0E01E0759F12FC08091200188608093200129C04E
:140954008091200180628093200123C0809120018068809337
:1409680020011DC08091800080628093800017C0809180000F
:14097C0080688093800011C0809190008860809390000BC024
:140990008091900080628093900005C08091900080688093CC
:1409A400900008950030010711F10130E0E01E0749F1023056
:1409B800E0E01E0781F10330E0E01E0709F436C00430E0E0D5
:1409CC001E0709F438C00530E0E01E0709F43AC00630E0E0F6
:1409E0001E0709F43CC00730E0E01E0709F43EC043C08091BA
:1409F4002001877F8093200180910B018F7D80930B0138C054
:140A0800809120018F7D8093200180910B018F7E80930B011F
:140A1C002DC0809120018F778093200180910B01877F809337
:140A30000B0122C0809180008F7D809380002E981BC08091E2
:140A440080008F77809380002D9814C080919000877F809332
:140A5800900075980DC0809190008F7D80939000749806C0FE
:140A6C00809190008F7780939000739808950E94391269012D
:140A80005801CC2029F4DD2019F485018DDF02C085013ADFA3
:140A9400860128DF87E491E098018C010E94D61127E030E01E
:140AA8000E941F11680196018501C1DE80E192E0F501EE0F7D
:140ABC00FF1FE80FF91F87E090E0918380830C941A124A9362
:140AD0005A934427552780E192E0FA01EE0FFF1FE80FF91F46
:140AE40020803180222011F43320F1F01A01220C331C280E64
:140AF800391EF1018081918101979183808380E192E0FA0111
:140B0C00EE0FFF1FE80FF91F20803180222041F4332031F46B
:140B2000222733278A0187DE8A013EDF4F5F5F4F4830E0E0F2
:140B34005E070CF4CECF5991499108954A935A9381EA809302
:140B480080008AE08093810089EA809390008AE080939100F7
:140B5C0089EA809320018AE080932101AEDE4427552780E16B
:140B700092E0FA01EE0FFF1FE80FF91F2224332431822082E8
:140B84004F5F5F4F4830E0E05E077CF3599149910895AA9258
:140B9800BA925801E297AA2011F4BB2059F027E432E08E018C
:140BAC000E94EB128E010E94730A002711270AC02BE232E0A0
:140BC0008E010E94EB128E010E94730A00271127E296B99025
:140BD400A99008950E9460125801E697AA2029F4BB2019F47E
:140BE8000FEF1FEF3FC085010E94F90258010E940D13402F41
:140BFC0085010E940B030E94F90268010E940D135801BB8251
:140C1000AA82242E3324398228822EE132E08E010C5F1F4F0D
:140C24000E94EB128E010C5F1F4F0E94730A4830A0F0BB8251
:140C3800AA82842F99270897998388832EE132E08E010C5F28
:140C4C001F4F0E94EB128E010C5F1F4F0E94B80B05C095015F
:140C6000042F11270E943D0500271127E6960C946712AA9201
:140C7400BA925801E297AA2011F4BB20B1F085010E94F902E0
:140C88000E940D135801950101E010E00E94F10324E132E029
:140C9C008E010E94EB128E010E94B80B0027112702C00FEF03
:140CB0001FEFE296B990A9900895AA92BA925801E497AA2065
:140CC40011F4BB20E1F085010E94F9020E940D135801950197
:140CD80005E010E00E94F103B982A88227E032E08E010E5F23
:140CEC001F4F0E94EB128E010E5F1F4F0E94B80B00271127B9
:140D000002C00FEF1FEFE496B990A99008950E943512A801E6
:140D14008A010E94F90268010E940B03A8012224FA012082FE
:140D28004F5F5F4F8A010E940D135801960102E012E00E94A8
:140D3C00C51278010030010761F4950103E010E00E94F103C7
:140D500005EF11E00E94820A0027112738C096010DEE11E0A2
:140D64000E94C51278010030010761F4950107E010E00E94ED
:140D7800F1030DED11E00E94820A0027112723C0960108ED8C
:140D8C0011E00E94C51268010030010761F495010AE010E083
:140DA0000E94F1030BEC11E00E94820A002711270EC00AEB71
:140DB40011E00E94C70B06EA11E00E94C70B05E911E00E94F0
:140DC800C70B0FEF1FEF0C941F120E946012A801E2974030C2
:140DDC00450719F40FEF1FEF27C08A010E94F902A8010E9444
:140DF0000D13580109C0FA0180818E3219F44F5F5F4F06C0C2
:140E04004F5F5F4FFA012080222099F78A010E940D1368015B
:140E18000AE010E095010E94D6115801AC0CBD1CB0922F0270
:140E2C00A0922E0200271127E2960C9467121A930A93EF9790
:140E4000AB978EE592E09D838C838AE692E09B838A8388E5CE
:140E540092E0998388832EE731E08E010A5F1F4F0E94EB12C6
:140E68008E010A5F1F4F0E94730A00271127EF96AD9608952D
:140E7C001A930A9304E711E00E94C70BFFCF22960895AA9269
:140E9000BA92E69700E012E00E945B0225E030E007E010E0C8
:140EA4000E94A503580122243324201631060CF03CC02090E5
:140EB8002C0230902D0202151305A8F52224332430922D02AF
:140ECC0020922C0280910E0290910F028030E0E09E071CF4BA
:140EE000AA24BB2404C0A0900E02B0900F0220902E0230905C
:140EF4002F02A20CB31C2AE030E085010E9432111B830A838C
:140F08002AE030E085010E9436111983088322E431E08E017F
:140F1C000C5F1F4F0E94EB128E010C5F1F4F0E94730A8091B1
:140F30002C0290912D02019690932D0280932C02E696B99040
:140F4400A99008950E945212EE972AE030E003E010E00E94A9
:140F5800A503580122243324201631060CF052C02090220298
:140F6C00309023020215130508F04AC02224332430922302D7
:140F800020922202002711270E9426021801442437FC4094D6
:140F9400552447FC50944CE750E060E070E05A924A923A9222
:140FA8002A928A019B010E94E61188E090E08A930E942611EB
:140FBC000C831D832E833F8341E151E060E070E02C803D8033
:140FD0004E805F80241A350A460A570A288639864A865B8614
:140FE400288439844A845B84288239824A825B8227E331E0BA
:140FF8008E01045F1F4F0E94EB128E01045F1F4F0E94730A67
:14100C00809122029091230201969093230280932202EE96BB
:141020000C9459120E945212EE972AE030E00AE010E00E9490
:14103400A503580122243324201631060CF05EC020902002B1
:14104800309021020215130508F056C02224332430922102F2
:14105C002092200201E010E00E9426021801442437FC409489
:14107000552447FC50944DE850E060E070E05A924A923A9243
:141084002A928A019B010E94E61188E090E08A930E9426110E
:14109800088719872A873B874AE050E060E070E0088519858D
:1410AC002A853B857A936A935A934A930E9474110C831D8397
:1410C0002E833F834AE050E060E070E0088519852A853B8525
:1410D4007A936A935A934A930E947211088319832A833B837D
:1410E80027E231E08E01045F1F4F0E94EB128E01045F1F4F7B
:1410FC000E94730A809120029091210201969093210280935A
:141110002002EE960C945912BADE16DF83CF00E012E00C94C9
:14112400490286EE87BD82E085BB80916E00826080936E0030
:1411380082E084BD83E085BD08958A939A938FB78A938CB7CE
:14114C008A9380913602909137020196909337028093360291
:14116000809134029091350201969093350280933402809191
:14117400320290913302019690933302809332028091300264
:14118800909131020196909331028093300289918CBF89914E
:14119C008FBF9991899118952090360230903702222011F4D8
:1411B000332071F0F894809136029091370201979093370254
:1411C40080933602789401E010E002C0002711270895E2E56A
:1411D800F2E0279036904090340250903502241435049CF496
:1411EC00F894E2E5F2E02790369040903402509035024218D6
:1412000053085092350240923402789401E010E002C0002798
:1412140011270895E4E5F2E0279036904090320250903302C0
:14122800241435049CF4F894E4E5F2E0279036904090320209
:14123C0050903302421853085092330240923202789401E0CA
:1412500010E002C0002711270895E6E5F2E0279036904090F2
:14126400300250903102241435049CF4F894E6E5F2E0279050
:141278003690409030025090310242185308509231024092EB
:14128C003002789401E010E002C00027112708950E941A11B4
:1412A0000E944812249722242092B9022092B8022092BB02F5
:1412B4002092BA0286E08093CA0088E98093C90028843984BF
:1412C8004A845B8440E150E060E070E05A924A923A922A9234
:1412DC008A019B010E94E61140E050E061EE70E03A932A93C5
:1412F0001A930A938A019B010E946C111801290141E050E0C6
:1413040060E070E0241A350A460A570A288239824A825B8209
:1413180088E090E0088119812A813B818A930E94B912009342
:14132C00CD00288039804A805B802092CC0024960E944D12A1
:14134000249608952A928A939A93EA93FA932FB62A922CB6AF
:141354002A9288E392E0E091BA02FF27E80FF91F2090CE000C
:1413680020828091BA028F5F8F738093BA0229902CBE2990E7
:14137C002FBEF991E99199918991299018952A923A928A931D
:141390009A93EA93FA932FB62A922CB62A922090B8023090A9
:1413A400B902321431F48091C9008F7D8093C90010C088E70E
:1413B80092E0E091B902FF27E80FF91F20802092CE0080911D
:1413CC00B9028F5F8F738093B90229902CBE29902FBEF991C1
:1413E000E991999189913990299018952090BB023090BA0223
:1413F400321411F401E001C000270895AA92F4DF002311F001
:1414080000270FC088E392E0E091BB02FF27E80FF91FA0807A
:14141C008091BB028F5F8F738093BB020A2DA99008950E947F
:141430006E12A90158010EC0E3DF602F0D3011F00A3019F481
:1414440001E010E018C0F50161935F01222420821A0141500D
:141458005040222011F4332021F0C4DFC02E002339F34030F5
:14146C00450719F40FEF1FEF02C0002711270C94771220900D
:14148000B9023090B802321419F401E010E002C000271127DE
:1414940008958091B8028F5F8F732090B902281619F401E055
:1414A80010E002C0002711270895AA92A02EEFDF0023E9F7A7
:1414BC0088E792E0E091B802FF27E80FF91FA0828091B802EE
:1414D0008F5F8F738093B8028091C90080628093C900A9907A
:1414E4000895AA92BA92580104C0F50101915F01DEDFF50117
:1414F80020802220C1F7B990A99008954A935A93A80106C0EE
:14150C001A014F5F5F4FF1010691CDDFFA0126902220B1F784
:141520005991499108950E941A110E944812249722242092DA
:141534003D0320923C0320923F0320923E0386E080933201DF
:1415480088E980933101288439844A845B8440E150E060E032
:14155C0070E05A924A923A922A928A019B010E94E61140E0FB
:1415700050E061EE70E03A932A931A930A938A019B010E94FB
:141584006C111801290141E050E060E070E0241A350A460AE5
:14159800570A288239824A825B8288E090E0088119812A812A
:1415AC003B818A930E94B91200933501288039804A805B8016
:1415C0002092340124960E944D12249608952A928A939A9318
:1415D400EA93FA932FB62A922CB62A928CEB92E0E0913E031F
:1415E800FF27E80FF91F20903601208280913E038F5F8F73EF
:1415FC0080933E0329902CBE29902FBEF991E99199918991F6
:14161000299018952A923A928A939A93EA93FA932FB62A92E3
:141624002CB62A9220903C0330903D03321431F48091310177
:141638008F7D8093310110C08CEF92E0E0913D03FF27E80FC2
:14164C00F91F20802092360180913D038F5F8F7380933D0355
:1416600029902CBE29902FBEF991E991999189913990299063
:14167400189520903F0330903E03321411F401E001C00027AE
:141688000895AA92F4DF002311F000270FC08CEB92E0E0912E
:14169C003F03FF27E80FF91FA08080913F038F5F8F7380934D
:1416B0003F030A2DA99008950E946E12A90158010EC0E3DF22
:1416C400602F0D3011F00A3019F401E010E018C0F50161936B
:1416D8005F01222420821A0141505040222011F4332021F0CF
:1416EC00C4DFC02E002339F34030450719F40FEF1FEF02C073
:14170000002711270C94771220903D0330903C03321419F40B
:1417140001E010E002C000271127089580913C038F5F8F73F2
:1417280020903D03281619F401E010E002C0002711270895E3
:14173C00AA92A02EEFDF0023E9F78CEF92E0E0913C03FF27FB
:14175000E80FF91FA08280913C038F5F8F7380933C038091B1
:141764003101806280933101A9900895AA92BA92580104C09D
:14177800F50101915F01DEDFF50120802220C1F7B990A990A6
:14178C0008954A935A93A80106C01A014F5F5F4FF101069173
:1417A000CDDFFA0126902220B1F75991499108950E94521287
:1417B400EF97A59702E414E00E940E11580120E031E0201B1F
:1417C800310B82E494E0080F191F0E94170AA8010030E0E04C
:1417DC001E0724F422242092420422C022243324241635068A
:1417F000ECF402E414E00E940E11580100300107A9F022E43A
:1418040034E00FEF10E00E9421035801B5010030E0E01E07E4
:1418180034F0222433243092410320924003222420924204C2
:14182C004030450709F0C2CFEF96A5960C9459120E943E12A5
:1418400002E413E00E940E11580120E031E0201B310B82E4B3
:1418540093E0080F191F0E945C0BA8010030E0E01E0724F4DF
:141868002224209242030EC022243324241635064CF422E409
:14187C0033E00FE111E00E94210322242092420340304507A5
:14189000B9F60C94431280E684B9222425B881E087B988B9F8
:1418A40084E08AB92BB888E38DB92EB820BA21BA83E083BBB9
:1418B80084BB82E08093040120920501209207012092080136
:1418CC0088E380930A0120920B010895F894A89580916000EA
:1418E0008861809360008EE08093600078940895A895D1DF21
:1418F400A895F0DF0E9493080E941F0200E012EC21E030E0E5
:141908000E944E0900E012EC21E030E00E94930A0E94A0055D
:14191C000E948F08002711270E941D0781E028B0282628B8F2
:141930007894A8950E94EB080030010711F038DF7DDF0E9477
:141944000C090030010711F00E948C080E942D0958010030AA
:14195800010751F381E024B2282624BA0E946705E3CF08956F
:14196C000E946E12580103C0C50101965C01F50106911127AA
:141980000E94311500300107A9F766277727F50186918D329C
:1419940029F461E0CF0101965C0107C0F50186918B3219F47F
:1419A800CF0101965C014427552711C01501C10101965C01E3
:1419BC000AE010E09A010E94D611A801F10126903324420D22
:1419D000531D40535040F501069111270E941D15680100303E
:1419E400010731F76030670731F08A01009510950F5F1F4FFF
:1419F80001C08A010C9477120E941A110E9433126297002495
:141A0C0011241D860C86F7C3EE8DFF8D8691853259F00691ED
:141A2000EC8DFD8D0E9480128C859D8501969D878C87E2C3D5
:141A3400002411241B860A868FEF9FEF9F878E8766277727A2
:141A480042E455E080E2C82E8E8D9F8D01969F8F8E8FAA24E0
:141A5C00BB24EE8DFF8DE690FF24C7018032E0E09E07F1F037
:141A70008332E0E09E0791F08032E0E09E07E4F0C7018B3257
:141A8400E0E09E0769F08D32E0E09E0739F08033E0E09E072B
:141A980069F00EC061600FC064600DC068608BE2C82E09C0FE
:141AAC00686080E2C82E05C0606103C081E090E05C01AA20C5
:141AC00011F4BB2009F006C08E8D9F8D01969F8F8E8FC5CFB6
:141AD400EE8DFF8D069111270E941D1500300107B1F00E8DE0
:141AE8001F8D40DF1B870A8705C08E8D9F8D01969F8F8E8FFE
:141AFC00EE8DFF8D069111270E941D1558010030010789F71B
:141B100015C0EE8DFF8D86918A3281F488A199A1029699A366
:141B240088A3FC013297208031803B862A868E8D9F8D01961C
:141B38009F8F8E8FEE8DFF8D86918E3209F039C0CF01019617
:141B4C009F8F8E8FFC01069111270E941D1558010030010709
:141B6000B9F00E8D1F8D02DF5801BF86AE8605C08E8D9F8DC2
:141B740001969F8F8E8FEE8DFF8D069111270E941D15580178
:141B88000030010789F715C0EE8DFF8D86918A3281F488A144
:141B9C0099A1029699A388A3FC013297208031803F862E866C
:141BB0008E8D9F8D01969F8F8E8FEE8DFF8D86918C3629F4FB
:141BC400CF0101969F8F8E8F6260EE8DFF8DA690BB24C501B7
:141BD8008835E0E09E0709F490C088E58A159B0594F0C50194
:141BEC008534E0E09E0709F4FDC28534E0E09E070CF440C0ED
:141C0000C5018335E0E09E0709F46EC139C0C5018336E0E089
:141C14009E0709F443C18436E0E09E0709F43BC08536E0E084
:141C28009E0709F4E1C28636E0E09E0709F4DCC28936E0E028
:141C3C009E0709F42CC08F36E0E09E0709F45BC08037E0E04D
:141C50009E0709F456C08336E0E09E078CF0C5018337E0E0EE
:141C64009E0709F4FEC18537E0E09E0709F447C08837E0E067
:141C78009E0709F442C000C0EE8DFF8D0691EC8DFD8D0E94B1
:141C8C0080128C859D8501969D878C87AFC261FF1EC088A1D9
:141CA00099A1049699A388A3FC013497208031804280538047
:141CB4002E823F82488659868AE090E09B838A832E803F808C
:141CC800488459844882598291018A010E94BE13BFC088A182
:141CDC0099A1029699A388A3FC01329720803180398A288A2F
:141CF0008AE090E09983888391018A010E945313ABC061FFEF
:141D040010C088A199A1049699A388A3FC013497208031807E
:141D1800428053802E823F82488659860BC088A199A102963E
:141D2C0099A388A3FC01329720803180398A288AEE8DFF8DA9
:141D400086918537D9F461FF0FC08AE090E09B838A832E800D
:141D54003F80488459844882598291018A010E94761478C0ED
:141D68008AE090E099838883288939898A010E94DD146EC0A7
:141D7C00EE8DFF8D86918F3609F560FF04C080E3FA018193DD
:141D9000AF0161FF0FC088E090E09B838A832E803F80488424
:141DA40059844882598291018A010E94761452C088E090E076
:141DB80099838883288939898A010E94DD1448C0EE8DFF8D50
:141DCC008691803739F480E3FA01819388E78193AF010CC097
:141DE00060FF0AC080E3FA018193AF01EE8DFF8D2690FA01EC
:141DF4002192AF0161FF0FC080E190E09B838A832E803F80E0
:141E0800488459844882598291018A010E94761409C080E105
:141E1C0090E099838883288939898A010E94DD14EE8DFF8D83
:141E30008691883589F442E455E00AC0FA01008111270E94D2
:141E44003B155801FA01A0824F5F5F4FFA012080222091F703
:141E580042E455E08E859F858F3FEFEF9E0721F40024112425
:141E6C001F860E860E841F84002019F4112009F404C102E4EE
:141E800015E00E940E115801B98AA88A0E841F840A141B0458
:141E94000CF0F7C005011F860E86F3C088A199A1029699A35E
:141EA80088A3FC013297208031802C8281E090E00A841B8438
:141EBC008015910544F41F860E8622242D82AE014C5F5F4F79
:141ED000DAC00C81EC8DFD8D0E9480128C859D8501969D87B2
:141EE4008C8788C188A199A1029699A388A3FC013297E08006
:141EF800F1808E859F858F3FEFEF9E0721F4002411241F86CA
:141F0C000E860A841B84002011F4112051F087010E94D41259
:141F200058012A843B84201A310A3B862A860E841F840020AC
:141F340041F4112031F487010E94D4125801BF86AE860A849E
:141F48001B84002011F4112031F063FF04C0C00101979B87CE
:141F5C008A8764FF26C063FF0AC00C2DEC8DFD8D0E9480127B
:141F70008C859D8501969D878C8762FD4CC00FC000E3EC8DC6
:141F8400FD8D0E9480128C859D8501969D878C878A859B855B
:141F980001979B878A87222433240A841B842014310454F3F0
:141FAC0034C062FD17C00FC000E2EC8DFD8D0E9480128C85FE
:141FC0009D8501969D878C878A859B8501979B878A872224DD
:141FD40033240A841B842014310454F363FF19C00C2DEC8DD8
:141FE800FD8D0E9480128C859D8501969D878C870EC0F70160
:141FFC000691EC8DFD8D0E9480128C859D8501969D878C8702
:14201000C70101967C01F7012690222051F0AE84BF84C50174
:1420240001979F878E87AA2031F7BB2021F762FFE1C00FC01F
:1420380000E2EC8DFD8D0E9480128C859D8501969D878C877A
:14204C008A859B8501979B878A87222433240A841B84201488
:14206000310454F3C9C088A199A1029699A388A3FC0132973F
:14207400408151814030450721F483E792E07C013ACF8E857F
:142088009F858F3FEFEF9E0721F4002411241F860E860A849A
:14209C001B84002011F4112051F08A010E940E1158012A84A7
:1420B0003B84201A310A3B862A860E841F84002041F41120BC
:1420C40031F48A010E940E115801BF86AE860A841B84002078
:1420D80011F4112031F063FF04C0C00101979B878A8764FF88
:1420EC0026C063FF0AC00C2DEC8DFD8D0E9480128C859D852B
:1421000001969D878C8762FD4BC00FC000E3EC8DFD8D0E943C
:1421140080128C859D8501969D878C878A859B8501979B873B
:142128008A87222433240A841B842014310454F333C062FDC6
:14213C0017C00FC000E2EC8DFD8D0E9480128C859D85019606
:142150009D878C878A859B8501979B878A87222433240A841F
:142164001B842014310454F363FF18C00C2DEC8DFD8D0E9400
:1421780080128C859D8501969D878C870DC0FA010081EC8DFE
:14218C00FD8D0E9480128C859D8501969D878C874F5F5F4F24
:1421A000FA012080222051F0AE84BF84C50101979F878E87FF
:1421B400AA2039F7BB2029F762FF1CC00FC000E2EC8DFD8D31
:1421C8000E9480128C859D8501969D878C878A859B85019707
:1421DC009B878A87222433240A841B842014310454F304C07E
:1421F00085E892E07C0181CE8E8D9F8D01969F8F8E8FEE8D8C
:14220400FF8D2690222009F003CC0C851D8562960E94281273
:1422180024960895E02FF12FAA27BB270190002011F0119620
:14222C00FBCF0A2F1B2F08953A932A931A930A9308952223FE
:1422400021F0159507952A95FACF08950F920990002031F093
:1422540035952795179507950A94F8CF0F9008956894DA929F
:14226800D12E04C0E894DA92D12ED32617FF04C010950095AB
:14227C000F5F1F4F37FF04C0309520952F5F3F4F0E945311DC
:14229000D7FE04C0109500950F5F1F4FD9900895689401C0C8
:1422A400E894EA92FA928A93EE24FF2480E1000F111FEE1CA6
:1422B800FF1CE216F30618F0E21AF30A03958A95A1F716F4AC
:1422CC000E2D1F2D8991F990E9900895E89401C0689430D085
:1422E000CC2409C0E89401C068942AD037FD0E948B12B7FDD7
:1422F40052D0772488249924AA24BB2442D0C1F045D0B1F08A
:14230800E8E2000F111F221F331F771C881C991CAA1CBB1C9C
:14231C0088169906AA06BB0628F0881A990AAA0ABB0A039591
:14233000EA9559F726F4082D192D2A2D3B2D13C07A928A927B
:142344009A92AA92BA92CA92EA938A939A93AA93BA938B8514
:142358009C85AD85BE85C32E0EF0CB260895C7FC0E948B125C
:14236C00B991A99199918991E991C990B990A99099908990FE
:14238000799024960895E02FE12BE22BE32B0895E82FE92BEB
:14239400EA2BEB2B089580959095A095B0958F5F9F4FAF4FDF
:1423A800BF4F08950A921A928A939A93029FC001129F900D34
:1423BC00039F900D8C01999189911990099008950E949412D6
:1423D0007A920E94AD1259F177240E94B31219F48C019D0108
:1423E40024C00A921A92089FB02CA12C289F902C812C189F82
:1423F800A00C911C871C099FA00C911C871C199F900C811C40
:14240C000A9F900C811C389F800C299F800C1A9F800C0B9F34
:14242000800C199009900B2D1A2D292D382D79900C94A21243
:14243400A990B990C990D9900895A990B990C990D990E990F6
:14244800F990499159910895A990B990C990D990E990F99050
:14245C00499159916991799108957A936A935A934A93FA92A7
:14247000EA92DA92CA92BA92AA9208955A934A93BA92AA929D
:142484000895A990B9904991599108957A936A935A934A93F0
:142498000895499159916991799108957A936A935A934A935A
:1424AC00BA92AA920895A990B9904991599169917991089510
:1424C0005A934A93DA92CA92BA92AA920895A990B990C99076
:1424D400D9904991599108957A936A935A934A93DA92CA928E
:1424E800BA92AA920895A990B990C990D990499159916991B9
:1424FC00799108950A9207900A9207900A9206900CBEF99139
:14251000E9910990199400951095209530950F5F1F4F2F4FE9
:142524003F4F08958A929A92AA92BA92EA938A939A93AA93A4
:14253800BA9389859A85AB85BC850895B991A991999189913F
:14254C00E991B990A9909990899024960895EE27E02BE12BBA
:14256000E22BE32B0895EE27E82BE92BEA2BEB2B08950F920A
:142574000990002031F036952795179507950A94F8CF0F90A6
:142588000895E02FF12FA22FB32FC895002D31961D91011BA5
:14259C0019F41123C1F70027110B0895E02FF12FAA27BB2770
:1425B000C895002019F031961196FACF0A2F1B2F0895E091C9
:1425C4005B05F0915C050193F0935C05E0935B0508950E9437
:1425D8001A11AA92BA9222972C803D8030925C0520925B05E5
:1425EC00CE0108965C01B982A8822E813F810CEF10E00E94B0
:14260000000D58012224E0915B05F0915C0520822296B990C4
:14261400A990249608950E945212580103C0C50101965C0146
:14262800F501008111270E94311500300107A9F76627772704
:14263C00F50180818D3229F461E0CF0101965C0107C0F501F5
:1426500080818B3219F4CF0101965C01442755270EC00AE048
:1426640010E09A010E94D611A801F50121905F013324420DF8
:14267800531D40535040F501008111270E941D150030010700
:14268C0051F76030670731F08A01009510950F5F1F4F01C071
:1426A0008A010C9459120E941A110E943312A901EE84FF843D
:1426B4005A01AA2051F4BB2041F480E3EA85FB8580832224FD
:1426C80021828F0153C04030E0E05E076CF4C7018A30E0E081
:1426DC009E0741F4CC24C394C5018095909501965C0101C014
:1426F000CC246A857B85970185010E945011A80189E090E054
:142704008017910734F0CA01C096FB018193BF0106C0CA01EC
:14271800895A9F4FFB018193BF01970185010E945211580190
:14272C00AA2019F7BB2009F7CC2021F08DE2FB018193BF01A8
:142740002B01615070402224F2012082AA84BB840CC0F501EE
:14275400C080FB012080F50121925F011B0161507040F1011D
:14276800C082A616B70688F30A851B850E94281224960895C5
:14277C000E941A110E9433122497288839884A885B8828820A
:1427900039824A825B82288839884A885B8888942220320417
:1427A4004204520441F480E3EE85FF858083222421828F017A
:1427B80094C040E050E060E070E0288839884A885B88241679
:1427CC00350646065706ECF48C899D898A30A0E09A07B9F472
:1427E000AA24A39441E050E060E070E0288039804A805B80F9
:1427F4002094309440945094240E351E461E571E28823982DE
:142808004A825B8201C0AA24CE84DF842C883D88442437FCBB
:14281C004094552447FC5094088119812A813B815A924A92E2
:142830003A922A920E946E11780189E090E08017910734F046
:14284400C701C096F60181936F0106C0C701895A9F4FF60191
:1428580081936F012C883D88442437FC4094552447FC509460
:14286C00088119812A813B815A924A923A922A920E946C115F
:14288000088319832A833B83288039804A805B80889422204E
:1428940032044204520409F0BBCFAA2021F08DE2F601819386
:1428A8006F012601C20101976C012224F2012082EE84FF84ED
:1428BC000DC0F701A080F6012080F70121927F011601C10188
:1428D00001976C01F101A082EC14FD0480F30E851F85249676
:1428E4000E942812249608953A932A930E9433125801CE8491
:1428F800DF84A5011601442437FC4094552447FC50940A850E
:14290C001B852C853D855A924A923A922A920E946E11B8017A
:1429200089E090E08017910734F0CB01C096FA018193AF0196
:1429340006C0CB01895A9F4FFA018193AF011601442437FCBB
:142948004094552447FC50940A851B852C853D855A924A929D
:14295C003A922A920E946C110A871B872C873D872A843B84A9
:142970004C845D848894222032044204520409F0BDCF2A01C2
:14298400415050402224F201208265010CC0F601E080FA01BF
:142998002080F60121926F011A0141505040F101E082C41607
:1429AC00D50688F385010E942812229608950E9433126901B9
:1429C0005801EA84FB84A501970186010E945011B80189E0D3
:1429D40090E08017910734F0CB01C096FA018193AF0106C085
:1429E800CB01895A9F4FFA018193AF01970186010E9452115B
:1429FC006801CC2019F7DD2009F72A01415050402224F201E0
:142A1000208265010CC0F601E080FA012080F60121926F01D2
:142A24001A0141505040F101E082C416D50688F385010C94B8
:142A3800281288EE92E0F801E80FF91F06911127047010709D
:142A4C00089588EE92E0F801E80FF91F069111270270107028
:142A6000089588EE92E0F801E80FF91F069111270071107015
:142A740008954A935A93A8018A010E9427150030010731F07C
:142A88008A01015610400F5B1F4F01C08A0159914991089583
:00000001FF
