:040000000C940B024F
:040054000C945A08A6
:080090000C945B090C947E093D
:0800D8000C94A00A0C94C30A69
:1400E400F806004D07002C07009606006C0600480600FB0527
:1400F80000DA05009A12006D01F9006901F6000002F300EBC2
:14010C0001F0006201ED005901EA005101E70000000000EB36
:1401200001E40000000000766F6C743A2025642E25640D0A70
:140134000074656D703A2025640D0A0063757272656E743ACA
:140148002025642E25640D0A007265737461727400666972E6
:14015C006D77617265007570646174650070776D0074696D52
:140170006500726573746172740D0A004669726D77617265BD
:140184003A2025532C2025532C2025530D0A007570646174D8
:14019800653A2074656D7020300D0A007570646174653A209A
:1401AC0063757272656E7420310D0A007570646174653A20F7
:1401C000766F6C7420300D0A00566F6C7420757064617465B7
:1401D4006400766F6C740043757272656E74207570646174CD
:1401E80065640063757272656E740054656D702075706461D7
:1401FC007465640074656D700063757272656E743A20300D62
:140210000A0074656D703A20300D0A0070776D3A2025642022
:1402240025640D0A0054696D653A2031333A34313A30302080
:1402380032372D30342D323031330D0A0054696D6520736527
:14024C00740D0A000A006400E8035620312E34004A756C2066
:14026000203820323031330032313A34303A343400286E759E
:140274006C6C20707472207061737365642900696E74656748
:140288006572206F6E6C79207072696E74662C2073656C6501
:14029C0063742050726F6A6563742D3E4F7074696F6E732DFC
:1402B0003E5461726765742C224650207072696E74662220BC
:1402C400746F207072696E7420666C6F6174696E6720706F83
:1402D800696E74206E756D626572733E0000202020202020AD
:1402EC0020202030303030302020202020202020202020202E
:14030000202020202020904040404040404040404040404059
:1403140040400C0C0C0C0C0C0C0C0C0C404040404040400914
:14032800090909090901010101010101010101010101010185
:14033C0001010101014040404040400A0A0A0A0A0A020202E6
:140350000202020202020202020202020202020202404040B7
:14036400402000000000000000000000000000000000000025
:14037800000000000000000000000000000000000000000071
:14038C0000000000000000000000000000000000000000005D
:1403A000000000000000000000000000000000000000000049
:1403B400000000000000000000000000000000000000000035
:1403C800000000000000000000000000000000000000000021
:1403DC000000000000000000000000010100580200000800A9
:1403F00000001A0100000108A00048020000080000000000E3
:1404040000000F088800400200000400050200000000CFEF3A
:14041800D1E2CDBFDEBFCE51D0400AEA08830024E0E3F2E08D
:14042C0015E0ED39F10711F00192FBCF0083E6EEF3E0A0E0A1
:14044000B2E014E000E00BBFE631F10721F0C89531960D9295
:14045400F9CF0E94310CFFCF87E880937A0080E480937C0030
:140468000895C80187709070805C9F4F80937C0087E090E0F3
:14047C008017910734F480917B00886080937B0005C080913D
:140490007B00877F80937B0087EC80937A0020907A0026FCFD
:1404A400FCCF009178001091790008950E940112B8014427E0
:1404B800552704C08B010AD04F5F5F4FFB0120843184421582
:1404CC005305B4F30C9406120E940B12A8012497FA010081C6
:1404E0001127C3DFFA012284338402191309222717FD20958D
:1404F400332727FD309522803380442437FC4094552447FC31
:1405080050945A924A923A922A920E949F11FA0131962080F7
:14051C0033242A920E94DF10088319832A833B83FA012480F6
:14053000358046805780440C551CF201E20DF31D2880398051
:1405440031822082CA010696FC018081918101969183808329
:14055800FA0120843184468057802414350424F42224332478
:14056C003782268280E0888389838A838B83FA0160857185B2
:14058000A480B58018C061507040F501219031905F014424A5
:1405940037FC4094552447FC5094688079808A809B80620C38
:1405A800731C841C951C688279828A829B826030670729F733
:1405BC00FA01389620803180442437FC4094552447FC509402
:1405D000088119812A813B815A924A923A922A920E942B115F
:1405E40018012901FA0164847584882477FC8094992487FC71
:1405F800909426183708480859083786268606851785249653
:14060C000C9412124A935A93A80102C04F5F5F4FFA01008109
:1406200011270E94EA1400300107B1F78A0159914991089522
:140634004A935A93A80102C04F5F5F4FFA01208033242220ED
:1406480039F0022D11270E94EA140030010791F38A0159913D
:14065C00499108950E9427125901B8018501D2DF5801A801EC
:140670000FC0FA0120803324822D8D3311F08A3329F4222425
:14068400FA012192AF0106C04F5F5F4FFA012080222069F7A5
:14069800FA012080222009F021C0442755271EC09501FB0140
:1406AC00079116910E947E1268010030010791F4FB013296DF
:1406C00027903690222011F4332051F08A01FB0132960790E8
:1406D4001690F0010E94391268010DC06C5F7F4FFB0127900C
:1406E8003690222009F0DCCF332009F0D9CF0FEF1FEF0C94B2
:1406FC003012AA92F999FECFF89412BD01BD81E08FBBA0B4F5
:1407100078940A2DA99008950E941912A22E68018601EDDF63
:14072400402F55274F3FE0E05E0711F40A2D01C0042F0C9453
:1407380020124A935A93A8018A01DDDF402E8A010F5F1F4FEC
:14074C004F92D7DF4F90202E3324322C2224042D1127022946
:1407600013295991499108950E94F7115901A8018A01C5DF0C
:14077400402E8A010F5F1F4F4F92BFDF4F90202E3324322C3B
:140788002224442D5527422953294F3FEFEF5E0711F48501E7
:14079C0001C08A010C94FC110E9427125901680168857985C7
:1407B00009C01601C10101966C018101A0DFF50101935F01A4
:1407C400AB01615070404030450789F70C9430120E94F21151
:1407D800C22E580185018FDF0C1509F40BC0F999FECFF894FC
:1407EC00C0BCB2BCA1BC84E08FBB82E08FBB78940C94D311C8
:140800000E94F7115901A8012A2D8A01E3DF9501232F332751
:1408140027FD30958A010F5F1F4FDADF0C94FC110E940B125B
:140828005901B8014E815F8108C0F50121915F011B016F5F40
:14083C007F4F8101C9DF1A0141505040222099F7332089F7CF
:140850000C94121200300107E9F00130E0E01E07F1F0023096
:14086400E0E01E07F9F00330E0E01E0701F10430E0E01E078F
:1408780009F10530E0E01E0711F10630E0E01E0719F10730FA
:14088C00E0E01E0721F127C030932D0120932C0122C0309304
:1408A0002B0120932A011DC0309329012093280118C03093F9
:1408B4008B0020938A0013C030938900209388000EC030937D
:1408C8009D0020939C0009C030939B0020939A0004C0309335
:1408DC0099002093980008954A935A93442755272227332733
:1408F0008A01D2D04F5F5F4F4830E0E05E07B4F35991499163
:14090400089584E690E0801791071CF404E610E007C0003058
:14091800E0E01E071CF40027112700C0089500300107E9F009
:14092C000130E0E01E07F9F00230E0E01E0709F10330E0E0B4
:140940001E0719F10430E0E01E0729F10530E0E01E0739F1FD
:140954000630E0E01E0749F10730E0E01E0759F12FC08091D4
:14096800200188608093200129C0809120018062809320010D
:14097C0023C0809120018068809320011DC0809180008062E6
:140990008093800017C08091800080688093800011C08091FB
:1409A40090008860809390000BC08091900080628093900033
:1409B80005C08091900080688093900008950030010711F163
:1409CC000130E0E01E0749F10230E0E01E0781F10330E0E04B
:1409E0001E0709F436C00430E0E01E0709F438C00530E0E0E8
:1409F4001E0709F43AC00630E0E01E0709F43CC00730E0E0C8
:140A08001E0709F43EC043C080912001877F8093200180913A
:140A1C000B018F7D80930B0138C0809120018F7D8093200125
:140A300080910B018F7E80930B012DC0809120018F77809331
:140A4400200180910B01877F80930B0122C0809180008F7DBC
:140A5800809380002E981BC0809180008F77809380002D9867
:140A6C0014C080919000877F8093900075980DC080919000DD
:140A80008F7D80939000749806C0809190008F778093900097
:140A9400739808950E94F21169015801CC2029F4DD2019F42B
:140AA80085018DDF02C085013ADF860128DF87E491E09801E4
:140ABC008C010E948F1127E030E00E94D81068019601850130
:140AD000C1DE80E392E0F501EE0FFF1FE80FF91F87E090E0A7
:140AE400918380830C94D3114A935A934427552780E392E0DD
:140AF800FA01EE0FFF1FE80FF91F20803180222011F43320DA
:140B0C00F1F01A01220C331C280E391EF10180819181019732
:140B20009183808380E392E0FA01EE0FFF1FE80FF91F208010
:140B34003180222041F4332031F4222733278A0187DE8A01EF
:140B48003EDF4F5F5F4F4830E0E05E070CF4CECF5991499122
:140B5C0008954A935A9381EA809380008AE08093810089EAAF
:140B7000809390008AE08093910089EA809320018AE080939C
:140B84002101AEDE4427552780E392E0FA01EE0FFF1FE80FE6
:140B9800F91F22243324318220824F5F5F4F4830E0E05E0746
:140BAC007CF3599149910895AA92BA925801E297AA2011F43C
:140BC000BB2059F025E432E08E010E94A4128E010E942C0A94
:140BD400002711270AC029E232E08E010E94A4128E010E94AF
:140BE8002C0A00271127E296B990A99008950E9419125801A7
:140BFC00E697AA2029F4BB2019F40FEF1FEF3FC085010E9466
:140C1000080358010E94C612402F85010E941A030E94080391
:140C240068010E94C6125801BB82AA82242E33243982288209
:140C38002CE132E08E010C5F1F4F0E94A4128E010C5F1F4F61
:140C4C000E942C0A4830A0F0BB82AA82842F9927089799831D
:140C600088832CE132E08E010C5F1F4F0E94A4128E010C5F9C
:140C74001F4F0E94710B05C09501042F11270E944C05002700
:140C88001127E6960C942012AA92BA925801E297AA2011F4A9
:140C9C00BB20B1F085010E9408030E94C6125801950101E04B
:140CB00010E00E94000422E132E08E010E94A4128E010E946D
:140CC400710B0027112702C00FEF1FEFE296B990A9900895DC
:140CD800AA92BA925801E497AA2011F4BB20E1F085010E9409
:140CEC0008030E94C6125801950105E010E00E940004B982CA
:140D0000A88225E032E08E010E5F1F4F0E94A4128E010E5FE0
:140D14001F4F0E94710B0027112702C00FEF1FEFE496B9904F
:140D2800A99008950E94EE11A8018A010E94080368010E9454
:140D3C001A03A8012224FA0120824F5F5F4F8A010E94C61299
:140D50005801960100E012E00E947E1278010030010761F495
:140D6400950103E010E00E94000403EF11E00E943B0A00277B
:140D7800112738C096010BEE11E00E947E12780100300107D3
:140D8C0061F4950107E010E00E9400040BED11E00E943B0A1B
:140DA0000027112723C0960106ED11E00E947E1268010030B7
:140DB400010761F495010AE010E00E94000409EC11E00E9430
:140DC8003B0A002711270EC008EB11E00E94800B04EA11E0B5
:140DDC000E94800B03E911E00E94800B0FEF1FEF0C94D81137
:140DF0000E941912A801E2974030450719F40FEF1FEF27C044
:140E04008A010E940803A8010E94C612580109C0FA01808161
:140E18008E3219F44F5F5F4F06C04F5F5F4FFA01208022209E
:140E2C0099F78A010E94C61268010AE010E095010E948F1102
:140E40005801AC0CBD1CB0926F02A0926E0200271127E29688
:140E54000C9420121A930A93EF97AB978CE592E09D838C8394
:140E680088E692E09B838A8386E592E0998388832CE731E043
:140E7C008E010A5F1F4F0E94A4128E010A5F1F4F0E942C0A66
:140E900000271127EF96AD9608951A930A9302E711E00E94C4
:140EA400800BFFCF22960895AA92BA92E69700E212E00E9411
:140EB8006A0225E030E007E010E00E94B4035801222433247F
:140ECC00201631060CF03CC020906C0230906D020215130531
:140EE000A8F52224332430926D0220926C0280912E02909111
:140EF4002F028030E0E09E071CF4AA24BB2404C0A0902E02C3
:140F0800B0902F0220906E0230906F02A20CB31C2AE030E07C
:140F1C0085010E94EB101B830A832AE030E085010E94EF1032
:140F30001983088320E431E08E010C5F1F4F0E94A4128E0122
:140F44000C5F1F4F0E942C0A80916C0290916D02019690931F
:140F58006D0280936C02E696B990A9900895AA92BA92E497F7
:140F6C0000E012E00E946A022AE030E003E010E00E94B4034B
:140F800058012224332420163106FCF420906A0230906B02C1
:140F940002151305C0F42224332430926B0220926A02A0904C
:140FA8000E02B0900F02B982A88225E331E08E010E5F1F4FEC
:140FBC000E94A4128E010E5F1F4F0E942C0A80916A029091E9
:140FD0006B02019690936B0280936A02E496B990A990089561
:140FE400AA92BA92E69700E112E00E946A022AE030E00AE00F
:140FF80010E00E94B403580122243324201631065CF5209038
:14100C006802309069020215130520F522243324309269022D
:1410200020926802A0901E02B0901F022AE030E085010E94AD
:14103400EB101B830A832AE030E085010E94EF10198308831A
:1410480027E231E08E010C5F1F4F0E94A4128E010C5F1F4F52
:14105C000E942C0A8091680290916902019690936902809369
:141070006802E696B990A990089518DF74DFB2CF00E212E0C8
:141084000E94580200E012E00E94580200E112E00C945802C1
:1410980086EE87BD82E085BB80916E00826080936E0082E0A6
:1410AC0084BD83E085BD08958A939A938FB78A938CB78A93A0
:1410C00080917602909177020196909377028093760280912A
:1410D4007402909175020196909375028093740280917202BB
:1410E800909173020196909373028093720280917002909104
:1410FC0071020196909371028093700289918CBF89918FBFEE
:141110009991899118952090760230907702222011F43320DF
:1411240071F0F8948091760290917702019790937702809360
:141138007602789401E010E002C0002711270895E0E5F2E0F9
:14114C00279036904090740250907502241435049CF4F894E8
:14116000E0E5F2E02790369040907402509075024218530815
:141174005092750240927402789401E010E002C000271127C8
:141188000895E2E5F2E02790369040907202509073022414CF
:14119C0035049CF4F894E2E5F2E027903690409072025090B0
:1411B0007302421853085092730240927202789401E010E087
:1411C40002C0002711270895E4E5F2E02790369040907002FF
:1411D80050907102241435049CF4F894E4E5F2E0279036900B
:1411EC0040907002509071024218530850927102409270020C
:14120000789401E010E002C00027112708950E94D3100E9418
:141214000112249722242092F9022092F8022092FB022092F8
:14122800FA0286E08093CA0088E98093C900288439844A84EF
:14123C005B8440E150E060E070E05A924A923A922A928A0103
:141250009B010E949F1140E050E061EE70E03A932A931A9376
:141264000A938A019B010E9425111801290141E050E060E006
:1412780070E0241A350A460A570A288239824A825B8288E06E
:14128C0090E0088119812A813B818A930E9472120093CD00B1
:1412A000288039804A805B802092CC0024960E940612249688
:1412B40008952A928A939A93EA93FA932FB62A922CB62A923A
:1412C80088E792E0E091FA02FF27E80FF91F2090CE0020826F
:1412DC008091FA028F5F8F738093FA0229902CBE29902FBEA9
:1412F000F991E99199918991299018952A923A928A939A936A
:14130400EA93FA932FB62A922CB62A922090F8023090F90227
:14131800321431F48091C9008F7D8093C90010C088EB92E0DF
:14132C00E091F902FF27E80FF91F20802092CE008091F902E0
:141340008F5F8F738093F90229902CBE29902FBEF991E9914E
:14135400999189913990299018952090FB023090FA02321463
:1413680011F401E001C000270895AA92F4DF002311F00027AC
:14137C000FC088E792E0E091FB02FF27E80FF91FA0808091D9
:14139000FB028F5F8F738093FB020A2DA99008950E94271264
:1413A400A90158010EC0E3DF602F0D3011F00A3019F401E0AD
:1413B80010E018C0F50161935F01222420821A0141505040EB
:1413CC00222011F4332021F0C4DFC02E002339F340304507C6
:1413E00019F40FEF1FEF02C0002711270C9430122090F90232
:1413F4003090F802321419F401E010E002C000271127089549
:141408008091F8028F5F8F732090F902281619F401E010E00E
:14141C0002C0002711270895AA92A02EEFDF0023E9F788EBB0
:1414300092E0E091F802FF27E80FF91FA0828091F8028F5F7B
:141444008F738093F8028091C90080628093C900A990089517
:14145800AA92BA92580104C0F50101915F01DEDFF5012080A0
:14146C002220C1F7B990A99008954A935A93A80106C01A01FF
:141480004F5F5F4FF1010691CDDFFA0126902220B1F7599142
:14149400499108950E94D3100E9401122497222420927D0360
:1414A80020927C0320927F0320927E0386E08093320188E97B
:1414BC0080933101288439844A845B8440E150E060E070E0E0
:1414D0005A924A923A922A928A019B010E949F1140E050E0EF
:1414E40061EE70E03A932A931A930A938A019B010E94251182
:1414F8001801290141E050E060E070E0241A350A460A570A8E
:14150C00288239824A825B8288E090E0088119812A813B815B
:141520008A930E94721200933501288039804A805B802092F3
:14153400340124960E940612249608952A928A939A93EA9320
:14154800FA932FB62A922CB62A928CEF92E0E0917E03FF27BE
:14155C00E80FF91F20903601208280917E038F5F8F7380934E
:141570007E0329902CBE29902FBEF991E9919991899129909C
:1415840018952A923A928A939A93EA93FA932FB62A922CB647
:141598002A9220907C0330907D03321431F4809131018F7D5A
:1415AC008093310110C08CE393E0E0917D03FF27E80FF91F0E
:1415C00020802092360180917D038F5F8F7380937D032990C1
:1415D4002CBE29902FBEF991E99199918991399029901895FC
:1415E80020907F0330907E03321411F401E001C000270895CB
:1415FC00AA92F4DF002311F000270FC08CEF92E0E0917F03D2
:14161000FF27E80FF91FA08080917F038F5F8F7380937F0359
:141624000A2DA99008950E942712A90158010EC0E3DF602FA8
:141638000D3011F00A3019F401E010E018C0F50161935F0126
:14164C00222420821A0141505040222011F4332021F0C4DF18
:14166000C02E002339F34030450719F40FEF1FEF02C000277B
:1416740011270C94301220907D0330907C03321419F401E0A5
:1416880010E002C000271127089580917C038F5F8F73209070
:14169C007D03281619F401E010E002C0002711270895AA92A4
:1416B000A02EEFDF0023E9F78CE393E0E0917C03FF27E80F98
:1416C400F91FA08280917C038F5F8F7380937C038091310183
:1416D800806280933101A9900895AA92BA92580104C0F50166
:1416EC0001915F01DEDFF50120802220C1F7B990A99008958C
:141700004A935A93A80106C01A014F5F5F4FF1010691CDDFF0
:14171400FA0126902220B1F75991499108950E940B12EF9780
:14172800A59702E814E00E94C710580120E031E0201B310B39
:14173C0082E894E0080F191F0E94D009A8010030E0E01E0733
:1417500024F422242092820422C02224332424163506ECF41B
:1417640002E814E00E94C710580100300107A9F022E834E0D2
:141778000FEF10E00E9430035801B5010030E0E01E0734F052
:14178C00222433243092810320928003222420928204403043
:1417A000450709F0C2CFEF96A5960C9412120E94F71102E847
:1417B40013E00E94C710580120E031E0201B310B82E893E0F7
:1417C800080F191F0E94150BA8010030E0E01E0724F42224E0
:1417DC00209282030EC022243324241635064CF422E833E085
:1417F0000FE111E00E94300322242092820340304507B9F647
:141804000C94FC1180E684B9222425B881E087B988B984E017
:141818008AB92BB888E38DB92EB820BA21BA83E083BB84BB6A
:14182C0082E08093040120920501209207012092080188E396
:1418400080930A0120920B010895F894A895809160008861F8
:14185400809360008EE08093600078940895A895D1DFA89559
:14186800F0DF0E944C080E942E0200E012EC21E030E00E9444
:14187C00070900E012EC21E030E00E944C0A0E94AF050E9469
:141890004008002711270E942C0781E028B0282628B8789455
:1418A400A8950E94A4080030010711F038DF7DDF0E94C5088A
:1418B8000030010711F00E943D080E94E608580100300107DB
:1418CC0051F381E024B2282624BA0E947605E3CF08950E9453
:1418E0002712580103C0C50101965C01F501069111270E947E
:1418F400EA1400300107A9F766277727F50186918D3229F4F6
:1419080061E0CF0101965C0107C0F50186918B3219F4CF0158
:14191C0001965C014427552711C01501C10101965C010AE055
:1419300010E09A010E948F11A801F10126903324420D531D6F
:1419440040535040F501069111270E94D6146801003001077A
:1419580031F76030670731F08A01009510950F5F1F4F01C0D2
:14196C008A010C9430120E94D3100E94EC1162970024112484
:141980001D860C86F7C3EE8DFF8D8691853259F00691EC8D36
:14199400FD8D0E9439128C859D8501969D878C87E2C30024FE
:1419A80011241B860A868FEF9FEF9F878E876627772742E829
:1419BC0055E080E2C82E8E8D9F8D01969F8F8E8FAA24BB24B4
:1419D000EE8DFF8DE690FF24C7018032E0E09E07F1F08332EE
:1419E400E0E09E0791F08032E0E09E07E4F0C7018B32E0E0D9
:1419F8009E0769F08D32E0E09E0739F08033E0E09E0769F01F
:141A0C000EC061600FC064600DC068608BE2C82E09C068601B
:141A200080E2C82E05C0606103C081E090E05C01AA2011F414
:141A3400BB2009F006C08E8D9F8D01969F8F8E8FC5CFEE8DCC
:141A4800FF8D069111270E94D61400300107B1F00E8D1F8D83
:141A5C0040DF1B870A8705C08E8D9F8D01969F8F8E8FEE8DBB
:141A7000FF8D069111270E94D61458010030010789F715C095
:141A8400EE8DFF8D86918A3281F488A199A1029699A388A39D
:141A9800FC013297208031803B862A868E8D9F8D01969F8FA6
:141AAC008E8FEE8DFF8D86918E3209F039C0CF0101969F8FA4
:141AC0008E8FFC01069111270E94D614580100300107B9F063
:141AD4000E8D1F8D02DF5801BF86AE8605C08E8D9F8D019661
:141AE8009F8F8E8FEE8DFF8D069111270E94D61458010030B4
:141AFC00010789F715C0EE8DFF8D86918A3281F488A199A1C7
:141B1000029699A388A3FC013297208031803F862E868E8D17
:141B24009F8D01969F8F8E8FEE8DFF8D86918C3629F4CF01D2
:141B380001969F8F8E8F6260EE8DFF8DA690BB24C501883556
:141B4C00E0E09E0709F490C088E58A159B0594F0C501853424
:141B6000E0E09E0709F4FDC28534E0E09E070CF440C0C5016C
:141B74008335E0E09E0709F46EC139C0C5018336E0E09E0737
:141B880009F443C18436E0E09E0709F43BC08536E0E09E0711
:141B9C0009F4E1C28636E0E09E0709F4DCC28936E0E09E07B5
:141BB00009F42CC08F36E0E09E0709F45BC08037E0E09E07DA
:141BC40009F456C08336E0E09E078CF0C5018337E0E09E077B
:141BD80009F4FEC18537E0E09E0709F447C08837E0E09E07F4
:141BEC0009F442C000C0EE8DFF8D0691EC8DFD8D0E94391298
:141C00008C859D8501969D878C87AFC261FF1EC088A199A1BD
:141C1400049699A388A3FC01349720803180428053802E825D
:141C28003F82488659868AE090E09B838A832E803F804884FC
:141C3C0059844882598291018A010E947713BFC088A199A1E7
:141C5000029699A388A3FC01329720803180398A288A8AE08B
:141C640090E09983888391018A010E940C13ABC061FF10C05C
:141C780088A199A1049699A388A3FC01349720803180428019
:141C8C0053802E823F82488659860BC088A199A1029699A351
:141CA00088A3FC01329720803180398A288AEE8DFF8D86915B
:141CB4008537D9F461FF0FC08AE090E09B838A832E803F80F2
:141CC800488459844882598291018A010E942F1478C08AE016
:141CDC0090E099838883288939898A010E9496146EC0EE8D6A
:141CF000FF8D86918F3609F560FF04C080E3FA018193AF0135
:141D040061FF0FC088E090E09B838A832E803F804884598483
:141D18004882598291018A010E942F1452C088E090E099830A
:141D2C008883288939898A010E94961448C0EE8DFF8D869128
:141D4000803739F480E3FA01819388E78193AF010CC060FFDB
:141D54000AC080E3FA018193AF01EE8DFF8D2690FA01219224
:141D6800AF0161FF0FC080E190E09B838A832E803F80488453
:141D7C0059844882598291018A010E942F1409C080E190E035
:141D900099838883288939898A010E949614EE8DFF8D8691B0
:141DA400883589F442E855E00AC0FA01008111270E94F4146A
:141DB8005801FA01A0824F5F5F4FFA012080222091F742E8B6
:141DCC0055E08E859F858F3FEFEF9E0721F4002411241F8633
:141DE0000E860E841F84002019F4112009F404C102E815E027
:141DF4000E94C7105801B98AA88A0E841F840A141B040CF026
:141E0800F7C005011F860E86F3C088A199A1029699A388A3BB
:141E1C00FC013297208031802C8281E090E00A841B8480155A
:141E3000910544F41F860E8622242D82AE014C5F5F4FDAC000
:141E44000C81EC8DFD8D0E9439128C859D8501969D878C870C
:141E580088C188A199A1029699A388A3FC013297E080F18034
:141E6C008E859F858F3FEFEF9E0721F4002411241F860E8633
:141E80000A841B84002011F4112051F087010E948D12580168
:141E94002A843B84201A310A3B862A860E841F84002041F45D
:141EA800112031F487010E948D125801BF86AE860A841B8408
:141EBC00002011F4112031F063FF04C0C00101979B878A87E9
:141ED00064FF26C063FF0AC00C2DEC8DFD8D0E9439128C854F
:141EE4009D8501969D878C8762FD4CC00FC000E3EC8DFD8DDA
:141EF8000E9439128C859D8501969D878C878A859B85019721
:141F0C009B878A87222433240A841B842014310454F334C020
:141F200062FD17C00FC000E2EC8DFD8D0E9439128C859D85A3
:141F340001969D878C878A859B8501979B878A872224332434
:141F48000A841B842014310454F363FF19C00C2DEC8DFD8D31
:141F5C000E9439128C859D8501969D878C870EC0F701069126
:141F7000EC8DFD8D0E9439128C859D8501969D878C87C701A4
:141F840001967C01F7012690222051F0AE84BF84C501019731
:141F98009F878E87AA2031F7BB2021F762FFE1C00FC000E262
:141FAC00EC8DFD8D0E9439128C859D8501969D878C878A8521
:141FC0009B8501979B878A87222433240A841B8420143104EF
:141FD40054F3C9C088A199A1029699A388A3FC013297408140
:141FE80051814030450721F481E792E07C013ACF8E859F85AB
:141FFC008F3FEFEF9E0721F4002411241F860E860A841B84AC
:14201000002011F4112051F08A010E94C71058012A843B845B
:14202400201A310A3B862A860E841F84002041F4112031F4E2
:142038008A010E94C7105801BF86AE860A841B84002011F46C
:14204C00112031F063FF04C0C00101979B878A8764FF26C033
:1420600063FF0AC00C2DEC8DFD8D0E9439128C859D8501964D
:142074009D878C8762FD4BC00FC000E3EC8DFD8D0E94391215
:142088008C859D8501969D878C878A859B8501979B878A8749
:14209C00222433240A841B842014310454F333C062FD17C08D
:1420B0000FC000E2EC8DFD8D0E9439128C859D8501969D878D
:1420C4008C878A859B8501979B878A87222433240A841B8431
:1420D8002014310454F363FF18C00C2DEC8DFD8D0E943912E1
:1420EC008C859D8501969D878C870DC0FA010081EC8DFD8D93
:142100000E9439128C859D8501969D878C874F5F5F4FFA0186
:142114002080222051F0AE84BF84C50101979F878E87AA20BC
:1421280039F7BB2029F762FF1CC00FC000E2EC8DFD8D0E94E5
:14213C0039128C859D8501969D878C878A859B8501979B875A
:142150008A87222433240A841B842014310454F304C083E8C1
:1421640092E07C0181CE8E8D9F8D01969F8F8E8FEE8DFF8DF9
:142178002690222009F003CC0C851D8562960E94E11124961A
:14218C000895E02FF12FAA27BB270190002011F01196FBCF9D
:1421A0000A2F1B2F08953A932A931A930A930895222321F044
:1421B400159507952A95FACF08950F920990002031F0359567
:1421C8002795179507950A94F8CF0F9008956894DA92D12EF7
:1421DC0004C0E894DA92D12ED32617FF04C0109500950F5FC9
:1421F0001F4F37FF04C0309520952F5F3F4F0E940C11D7FE49
:1422040004C0109500950F5F1F4FD9900895689401C0E894AD
:14221800EA92FA928A93EE24FF2480E1000F111FEE1CFF1C93
:14222C00E216F30618F0E21AF30A03958A95A1F716F40E2D18
:142240001F2D8991F990E9900895E89401C0689430D0CC245C
:1422540009C0E89401C068942AD037FD0E944412B7FD52D078
:14226800772488249924AA24BB2442D0C1F045D0B1F0E8E26E
:14227C00000F111F221F331F771C881C991CAA1CBB1C881655
:142290009906AA06BB0628F0881A990AAA0ABB0A0395EA953D
:1422A40059F726F4082D192D2A2D3B2D13C07A928A929A925B
:1422B800AA92BA92CA92EA938A939A93AA93BA938B859C85AC
:1422CC00AD85BE85C32E0EF0CB260895C7FC0E944412B99107
:1422E000A99199918991E991C990B990A990999089907990CC
:1422F40024960895E02FE12BE22BE32B0895E82FE92BEA2B6C
:14230800EB2B089580959095A095B0958F5F9F4FAF4FBF4F72
:14231C0008950A921A928A939A93029FC001129F900D039F2C
:14233000900D8C01999189911990099008950E944D127A923F
:142344000E94661259F177240E946C1219F48C019D0124C04A
:142358000A921A92089FB02CA12C289F902C812C189FA00C46
:14236C00911C871C099FA00C911C871C199F900C811C0A9FCF
:14238000900C811C389F800C299F800C1A9F800C0B9F800CDE
:14239400199009900B2D1A2D292D382D79900C945B12A9906A
:1423A800B990C990D9900895A990B990C990D990E990F99033
:1423BC00499159910895A990B990C990D990E990F99049918C
:1423D00059916991799108957A936A935A934A93FA92EA9292
:1423E400DA92CA92BA92AA9208955A934A93BA92AA92089509
:1423F800A990B9904991599108957A936A935A934A9308957D
:14240C00499159916991799108957A936A935A934A93BA9237
:14242000AA920895A990B990499159916991799108955A93FB
:142434004A93DA92CA92BA92AA920895A990B990C990D99086
:142448004991599108957A936A935A934A93DA92CA92BA9237
:14245C00AA920895A990B990C990D990499159916991799187
:1424700008950A9207900A9207900A9206900CBEF991E99155
:142484000990199400951095209530950F5F1F4F2F4F3F4F62
:1424980008958A929A92AA92BA92EA938A939A93AA93BA9372
:1424AC0089859A85AB85BC850895B991A99199918991E9919F
:1424C000B990A9909990899024960895EE27E02BE12BE22BB4
:1424D400E32B0895EE27E82BE92BEA2BEB2B08950F9209900B
:1424E800002031F036952795179507950A94F8CF0F9008952F
:1424FC00E02FF12FA22FB32FC895002D31961D91011B19F4C2
:142510001123C1F70027110B0895E02FF12FAA27BB27C895AC
:14252400002019F031961196FACF0A2F1B2F0895E0919B0512
:14253800F0919C050193F0939C05E0939B0508950E94D31080
:14254C00AA92BA9222972C803D8030929C0520929B05CE014D
:1425600008965C01B982A8822E813F810CEF10E00E94B90C46
:1425740058012224E0919B05F0919C0520822296B990A990A5
:14258800249608950E940B12580103C0C50101965C01F5015D
:14259C00008111270E94EA1400300107A9F766277727F501D9
:1425B00080818D3229F461E0CF0101965C0107C0F501808177
:1425C4008B3219F4CF0101965C01442755270EC00AE010E0E6
:1425D8009A010E948F11A801F50121905F013324420D531D4C
:1425EC0040535040F501008111270E94D6140030010751F7FD
:142600006030670731F08A01009510950F5F1F4F01C08A01BA
:142614000C9412120E94D3100E94EC11A901EE84FF845A01D0
:14262800AA2051F4BB2041F480E3EA85FB8580832224218241
:14263C008F0153C04030E0E05E076CF4C7018A30E0E09E070B
:1426500041F4CC24C394C5018095909501965C0101C0CC2455
:142664006A857B85970185010E940911A80189E090E0801780
:14267800910734F0CA01C096FB018193BF0106C0CA01895A2D
:14268C009F4FFB018193BF01970185010E940B115801AA207D
:1426A00019F7BB2009F7CC2021F08DE2FB018193BF012B01D3
:1426B400615070402224F2012082AA84BB840CC0F501C08067
:1426C800FB012080F50121925F011B0161507040F101C082A8
:1426DC00A616B70688F30A851B850E94E111249608950E943A
:1426F000D3100E94EC112497288839884A885B88288239820E
:142704004A825B82288839884A885B88889422203204420418
:14271800520441F480E3EE85FF858083222421828F0194C0F8
:14272C0040E050E060E070E0288839884A885B88241635061E
:1427400046065706ECF48C899D898A30A0E09A07B9F4AA246B
:14275400A39441E050E060E070E0288039804A805B8020949F
:14276800309440945094240E351E461E571E288239824A8252
:14277C005B8201C0AA24CE84DF842C883D88442437FC409440
:14279000552447FC5094088119812A813B815A924A923A9277
:1427A4002A920E942711780189E090E08017910734F0C7011E
:1427B800C096F60181936F0106C0C701895A9F4FF6018193D2
:1427CC006F012C883D88442437FC4094552447FC5094088178
:1427E00019812A813B815A924A923A922A920E942511088331
:1427F40019832A833B83288039804A805B8088942220320430
:142808004204520409F0BBCFAA2021F08DE2F60181936F01D8
:14281C002601C20101976C012224F2012082EE84FF840DC01C
:14283000F701A080F6012080F70121927F011601C101019749
:142844006C01F101A082EC14FD0480F30E851F8524960E94F8
:14285800E111249608953A932A930E94EC115801CE84DF84EC
:14286C00A5011601442437FC4094552447FC50940A851B855D
:142880002C853D855A924A923A922A920E942711B80189E085
:1428940090E08017910734F0CB01C096FA018193AF0106C0C6
:1428A800CB01895A9F4FFA018193AF011601442437FC40943A
:1428BC00552447FC50940A851B852C853D855A924A923A9232
:1428D0002A920E9425110A871B872C873D872A843B844C8479
:1428E4005D848894222032044204520409F0BDCF2A0141508E
:1428F80050402224F201208265010CC0F601E080FA0120803D
:14290C00F60121926F011A0141505040F101E082C416D50658
:1429200088F385010E94E111229608950E94EC116901580157
:14293400EA84FB84A501970186010E940911B80189E090E08F
:142948008017910734F0CB01C096FA018193AF0106C0CB01B5
:14295C00895A9F4FFA018193AF01970186010E940B11680191
:14297000CC2019F7DD2009F72A01415050402224F201208233
:1429840065010CC0F601E080FA012080F60121926F011A01E6
:1429980041505040F101E082C416D50688F385010C94E1116E
:1429AC0086EE92E0F801E80FF91F06911127047010700895C9
:1429C00086EE92E0F801E80FF91F06911127027010700895B7
:1429D40086EE92E0F801E80FF91F06911127007110700895A4
:1429E8004A935A93A8018A010E94E0140030010731F08A0163
:1229FC00015610400F5B1F4F01C08A015991499108959D
:00000001FF
